{
  "contractName": "TestContract",
  "abi": [
    {
      "constant": true,
      "inputs": [],
      "name": "counter",
      "outputs": [
        {
          "name": "",
          "type": "uint256"
        }
      ],
      "payable": false,
      "stateMutability": "view",
      "type": "function"
    },
    {
      "inputs": [],
      "payable": false,
      "stateMutability": "nonpayable",
      "type": "constructor"
    },
    {
      "constant": false,
      "inputs": [],
      "name": "IncrementCounter",
      "outputs": [],
      "payable": false,
      "stateMutability": "nonpayable",
      "type": "function"
    }
  ],
  "bytecode": "0x60806040526000805534801561001457600080fd5b5061002c610031640100000000026401000000009004565b610044565b6000808154809291906001019190505550565b60cf806100526000396000f3fe6080604052600436106049576000357c0100000000000000000000000000000000000000000000000000000000900463ffffffff1680630ffca1dd14604e57806361bc221a146062575b600080fd5b348015605957600080fd5b506060608a565b005b348015606d57600080fd5b506074609d565b6040518082815260200191505060405180910390f35b6000808154809291906001019190505550565b6000548156fea165627a7a723058209f6a218cfc0717f73b9684f0944d6e1e8cc0cbfb712e5be28934aacf5c028b370029",
  "source": "pragma solidity ^0.5.0;\n\ncontract TestContract {\n  uint public counter = 0;\n\n  constructor() public {\n    IncrementCounter();\n  }\n\n  function IncrementCounter() public {\n    counter ++;\n  }\n\n}",
  "sourcePath": "/home/priyanshu/gfg/truffle-metamask/contracts/TestContract.sol",
  "compiler": {
    "name": "solc",
    "version": "0.5.0+commit.1d4f565a.Emscripten.clang"
  },
  "schemaVersion": "3.0.1",
  "updatedAt": "2022-01-31T06:46:28.503Z",
  "devdoc": {
    "methods": {}
  },
  "userdoc": {
    "methods": {}
  }
}